:020000040800F2
:10000000C8B60120B10100088B110008050C0008DA
:1000100089110008150300082512000800000000DF
:100020000000000000000000000000008F11000828
:1000300017030008000000008D110008911100084E
:10004000CB010008CB010008CB010008CB01000860
:10005000CB010008CB010008CB010008CB01000850
:10006000CB010008CB010008CB010008CB01000840
:10007000CB010008CB010008CB010008CB01000830
:10008000CB010008CB010008CB01000800000000F4
:10009000000000000000000000000000CB0100088C
:1000A000CB010008CB010008CB010008CB01000800
:1000B000CB010008CB010008CB010008CB010008F0
:1000C000CB010008CB010008CB010008CB010008E0
:1000D000CB010008CB010008CB01000800000000A4
:1000E000CB010008CB010008CB0100080000000094
:1000F000000000000000000000000000CB0100082C
:1001000000000000CB010008CB010008CB01000873
:1001100000000000000000000000000000000000DF
:10012000CB010008CB010008CB010008CB0100087F
:10013000CB010008000000000000000000000000EB
:10014000000000000000000000000000CB010008DB
:10015000CB010008CB010008CB010008CB0100084F
:10016000CB010008CB0100080000000000000000E7
:10017000000000000000000000000000000000007F
:1001800000000000CB01000800000000000000009B
:10019000CB010008CB010008DFF810D000F0A8F870
:1001A00000480047AD210108AFF30080C8B6012028
:1001B0000648804706480047FEE7FEE7FEE7FEE701
:1001C000FEE7FEE7FEE7FEE7FEE7FEE709120008AE
:1001D000990100082DE9F05F0546002092469B46F4
:1001E00088460646814640241BE02846414647464D
:1001F000224600F06CF853465A46C01A914110D37B
:1002000011461846224600F053F82D1A67EB0108F4
:100210004F4622460120002100F04AF817EB000962
:100220004E41201EA4F10104DFDC484631462A4637
:100230004346BDE8F09FD2B201E000F8012B491E11
:10024000FBD270470022F6E710B513460A46044673
:100250001946FFF7F0FF204610BD421C10F8011BA5
:100260000029FBD1801A704710B5002200E0521C13
:10027000835C8C5CA34201D1002BF8D1D8B2E1B2EF
:10028000401A10BD30B504460020034600E05B1C58
:10029000934203D2E05CCD5C401BF8D030BD0346F6
:1002A00011F8012B00F8012B002AF9D118467047EC
:1002B000202A04DB203A00FA02F100207047914026
:1002C000C2F1200320FA03F3194390407047202A1B
:1002D00004DB203A21FA02F00021704721FA02F3F0
:1002E000D040C2F1200291400843194670470000F7
:1002F000064C074D06E0E06840F0010394E8070073
:1003000098471034AC42F6D3FFF74AFFB085010896
:10031000D0850108FEE7704770B5044600F0DEF8AE
:100320000546601C02D004480078044400F0D6F86A
:10033000401BA042FAD370BD0C0100202DE9F84FFC
:1003400000224FF0010803254FF00F0E0B6808FA4A
:1003500002F42340A34271D14E68012E05D0022E33
:1003600003D0112E01D0122E15D18668570005FA40
:1003700007FC26EA0C06D1F80CC00CFA07FC4CEA84
:10038000060CC0F808C04668A6430C79C4F30014F4
:10039000944034434460C668570005FA07FC8C68F3
:1003A00026EA0C06BC403443C4604C68022C01D0E1
:1003B000122C13D1D40800EB8404A346D4F8209067
:1003C00054074FEAD46A0EFA0AF629EA06090E69BA
:1003D00006FA0AF646EA0906CBF8206004680E79A8
:1003E00024EA0C0406F00306BE40264306604C686F
:1003F000E40056D52E4C266846F4804626602468D4
:1004000022F0030604F4804400942A4C3444A446A9
:10041000D4F808489607370F0EFA07F6B443264E6D
:10042000B04201D1002615E0244EB04201D1012690
:1004300010E0234EB04202D102260BE031E0214E03
:10044000B04201D1032605E01F4EB04201D104267F
:1004500000E00726BE402643CCF808681B4E3468EF
:100460004F689C43FF0300D51C433460174E361D74
:1004700034684F689C43BF0300D51C433460134E5F
:10048000083634684F689C43FF0200D51C43346033
:100490000E4E0C3634684F689C43BF0200D51C4397
:1004A0003460521C102AFFF451AFBDE8F88F0000F1
:1004B0004438024000300140000002400004024085
:1004C00000080240000C024000100240003C0140C5
:1004D0000AB1816170470904FBE7000001488068A8
:1004E000704700000C010020024881680278114426
:1004F000816070470C0100200B4810B5016841F481
:1005000000710160016841F480610160016841F49B
:1005100080710160032000F063F8002000F006F80D
:1005200000F024F8002010BD003C024070B50D4DD5
:1005300004464FF47A712878B1FBF0F00A49096853
:10054000B1FBF0F000F04AFB48B9102C07D20022B2
:100550002146501E00F024F800206C6070BD012080
:1005600070BD00000C010020000000200B4882B08C
:10057000016841F480410160006800F4804000900F
:100580000648001F016841F080510160006800F0DA
:1005900080500090072002B000F022B8443802409A
:1005A000F0B40E4B1B680C46C3F30223C3F10705DE
:1005B000042D00D90425191D072901D2002300E0CC
:1005C000DB1E012606FA05F1491E214099409E4096
:1005D000761E16403143F0BC00F025BE0CED00E065
:1005E000064900F0070208684FF6FF03184040EA8A
:1005F0000220034A10430860704700000CED00E041
:100600000000FA052DE9F0470E46050065D0DFF839
:100610001481D8F80000F7B200F00F00B04207D202
:1006200088F80070D8F8000000F00F00B04254D1F4
:1006300028683D4C810712D5400703D5206840F457
:10064000E05020602878000703D5206840F460401F
:1006500020602068A96820F0F00008432060287816
:10066000C0072DD0304968680839012812D0022807
:1006700013D0032811D00968890700292DDA2168D1
:1006800021F0030101432160FFF728FF814641F279
:10069000883A0EE009688903EFE709688901ECE709
:1006A000FFF71CFFA0EB0901514502D90320BDE86B
:1006B000F0872068696800F00C00B0EB810FEFD183
:1006C000D8F80010404601F00F01B14207D9077079
:1006D000006800F00F00B04201D00120E7E7287861
:1006E000400705D52068E96820F4E0500843206001
:1006F0002878000706D52068296920F4604040EA80
:10070000C100206000F018F82168084AC1F3031105
:10071000515CC8400649086006480068FFF706FFBC
:100720000020C4E7003C024008380240D44E0108D3
:100730000000002010010020154810B5006810F0DE
:100740000C02144813D04110042A0FD0082A0ED1ED
:100750000F4C241F2268236802F03F025B0207D57A
:100760002068C0F38810A0FB010106E0084610BD18
:100770002168C1F38811A1FB00010023FFF72AFDC6
:100780002168C1F30141491C4900B0FBF1F010BDE3
:10079000083802400024F4002DE9F84F04006ED020
:1007A0002078DFF83C93C007A9F104054AD009F18D
:1007B00004000168C1F38101012908D00068C0F379
:1007C000810002280AD1D9F80000400206D5286825
:1007D000800337D560680028E1D033E06068B0F569
:1007E000803F10D0B0F5A02F286810D020F48030C2
:1007F0002860286820F4802028606068A8B1FFF78E
:100800006DFE06460DE0286840F48030F4E740F4C1
:1008100080202860F7E700BFFFF760FE801B642898
:1008200073D828688003F7D50CE0FFF757FE06461B
:1008300005E000BFFFF752FE801B6428F0D828684F
:100840008003F7D42078DFF89C8280074FF0000AFD
:100850003ED5A348001D016811F00C0F08D00068B8
:10086000C0F3810002280BD1D9F80000400207D460
:100870002868800716D5E068012800D112E02BE136
:10088000E068B8B10120C8F80000FFF727FE06466F
:1008900005E000BFFFF722FE801B0228C0D82868B1
:1008A0008007F7D52868216920F0F80040EAC100E8
:1008B00028600DE0C8F800A0FFF710FE064604E02F
:1008C000FFF70CFE801B02281FD828688007F7D48A
:1008D0002078000722D5824E83486169703671B155
:1008E00001210160FFF7FAFD074604E0FFF7F6FD7E
:1008F000C01B022809D830688007F7D50EE0C0F881
:1009000000A0FFF7EBFD074605E082E0FFF7E6FDFC
:10091000C01B02287DD830688007F7D420784007B4
:1009200068D5DFF8BCB100270BF13C0BDBF8000009
:10093000C0000BD4DBF8001041F08051CBF8001060
:10094000DBF80000012700F080500090674E30680F
:10095000C00510D4306840F480703060FFF7BEFDF1
:10096000009005E0FFF7BAFD0099401A022850D820
:100970003068C005F6D55A4EA0686C3601280FD0F5
:100980000528306810D020F001003060306820F079
:1009900004003060A068B8B1FFF7A0FD00900FE040
:1009A000306840F00100F4E740F004003060F7E701
:1009B000FFF794FD0099411A41F28830814266D8D0
:1009C00030688007F4D50EE0FFF788FD009007E05F
:1009D000FFF784FD0099411A41F28830814256D8D0
:1009E00030688007F4D42FB1DBF8001021F080517B
:1009F000CBF80010A069C8B33949091D0968C1F3D3
:100A0000810102294AD00228504607D0C8F8600068
:100A100000E03CE0FFF762FD04463BE04746C8F8D3
:100A20006000FFF75BFD064605E000BFFFF756FDDF
:100A3000801B02282BD828688001F7D4D4E907014D
:100A40000843A16A2A4A490802EB0141626A41EA65
:100A50008211084394F82C1040EA0161C9F8001093
:100A600001203866FFF73AFD044606E036E000BF95
:100A7000FFF734FD001B022809D828688001F7D54C
:100A80002CE000BFFFF72AFD001B022802D903203B
:100A9000BDE8F88F28688001F4D41FE00128F7D062
:100AA000D9F80000E26900F48001914214D1226A71
:100AB00000F03F0191420FD147F6C071626A0140D8
:100AC000914209D1A26A00F44031914204D1E16A15
:100AD00000F07060884201D00120D9E70020D7E7FC
:100AE0000438024000004742800E47420070004038
:100AF0000000FFFF70B5040005D00025A56294F842
:100B0000510010B106E0012070BD84F8505020461D
:100B100000F030F8022084F851002068016821F0CC
:100B200040010160D4E901010843D4E903121143F3
:100B3000084361690843218B01F400710843E169AE
:100B40000843216A0843A16A084321680860A06934
:100B5000042101EA1040616A084321684860206866
:100B6000C16921F40061C1616565012084F851000B
:100B7000002070BD10B586B0044614216846FFF70A
:100B800061FB13492068884220D112480021026885
:100B900042F480520260006800F4805005900D48D5
:100BA0001438026842F001020260006800F001009F
:100BB0000590E02000900220CDE901010320039080
:100BC0000520049069460448FFF7B8FB06B010BD45
:100BD00000300140443802400000024010B5401E81
:100BE000B0F1807F01D3012010BD4FF0E02460619F
:100BF0000F21601700F017FB0020A0610720206183
:100C0000002010BDFEE700002DE9F04706464848E9
:100C10000D46174641888E427ED2008885427BD29F
:100C2000DFF810814FF4805900224946444640467F
:100C3000FFF74EFC002202212046FFF749FC3E4C04
:100C40002A20E060A0688007FCD5A0680006FCD4DC
:100C5000012249464046FFF73BFC300AE060A068AD
:100C60008007FCD5E660A0688007FCD5761C300ABA
:100C7000E060A0688007FCD5E660A0688007FCD52E
:100C8000A0680006FCD400224E4649464046FFF7C5
:100C90001FFC2B20E060A0688007FCD5A068000640
:100CA000FCD4B1463146012246464046FFF710FCCF
:100CB000280AE060A0688007FCD5E560A06880078E
:100CC000FCD56D1C280AE060A0688007FCD5E560B3
:100CD000A0688007FCD5A0680006FCD400224D4621
:100CE00049463046FFF7F4FB2C20E060A0688007FF
:100CF000FCD5A0680006FCD4012229463046FFF747
:100D0000E7FB380AE060A0688007FCD5E760A068D0
:100D10008007FCD5A06800E008E00006FAD4304661
:100D2000BDE8F04701220221FFF7D2BBBDE8F08702
:100D300008010020000402400030014010B50122EB
:100D400091028548FFF7C4FB00F008F9012000F08C
:100D500063F94FF47A70FFF7DFFACB2000F05CF90B
:100D6000392000F07BF92C2000F078F9002000F009
:100D700075F9342000F072F9022000F06FF9CF20ED
:100D800000F04AF9002000F069F9C12000F066F98E
:100D9000302000F063F9E82000F03EF9852000F0F3
:100DA0005DF9002000F05AF9782000F057F9EA20A8
:100DB00000F032F9002000F051F9002000F04EF967
:100DC000ED2000F029F9642000F048F9032000F03C
:100DD00045F9122000F042F9812000F03FF9F72098
:100DE00000F01AF9202000F039F9C02000F014F9C1
:100DF000232000F033F9C12000F00EF9102000F09C
:100E00002DF9C52000F008F93E2000F027F9282030
:100E100000F024F9C72000F0FFF8862000F01EF94A
:100E2000362000F0F9F8482000F018F93A2000F0D8
:100E3000F3F8552000F012F9B12000F0EDF8002091
:100E400000F00CF9182000F009F9B62000F0E4F8E1
:100E5000082000F003F9822000F000F9272000F0BC
:100E6000FDF8F22000F0D8F8002000F0F7F8262076
:100E700000F0D2F8012000F0F1F8E02000F0CCF80A
:100E80000F2000F0EBF8312000F0E8F82B2000F004
:100E9000E5F80C2000F0E2F80E2000F0DFF8082062
:100EA00000F0DCF84E2000F0D9F8F12000F0D6F880
:100EB000372000F0D3F8072000F0D0F8102000F021
:100EC000CDF8032000F0CAF80E2000F0C7F8092082
:100ED00000F0C4F8002000F0C1F8E12000F09CF818
:100EE000002000F0BBF80E2000F0B8F8142000F04D
:100EF000B5F8032000F0B2F8112000F0AFF8072099
:100F000000F0ACF8312000F0A9F8C12000F0A6F8FC
:100F1000482000F0A3F8082000F0A0F80F2000F00F
:100F20009DF80C2000F09AF8312000F097F8362058
:100F300000F094F80F2000F091F8112000F06CF808
:100F40007820FFF7E9F9292000F066F8BDE81040A5
:100F5000032000F021B800000004024070B50D4DE0
:100F60004FF48064002221462846FFF7B1FAC820DA
:100F7000FFF7D2F9002202212846FFF7A9FAC8207C
:100F8000FFF7CAF921462846BDE870400122FFF765
:100F90009FBA0000000402402DE9F0411B4C0646B8
:100FA00000224FF480512046FFF792FA00220221DE
:100FB0002046FFF78DFA16493620C86088688007FA
:100FC000FCD588680006FCD4012202212046FFF7E8
:100FD0007FFA104CF0254FF4A0776EB1012E0DD0A2
:100FE000022E0DD0032E05D15FF0E80000F036F898
:100FF00067802580BDE8F081482002E02820F5E7E1
:10100000882000F02BF865802780F3E70004024079
:10101000003001400801002070B50E4D044600224A
:101020004FF480512846FFF753FA00220221284648
:10103000FFF74EFA0849CC6088688007FCD58868BD
:101040000006FCD42846BDE8704001220221FFF7CB
:101050003FBA0000000402400030014070B50D4D61
:101060000446012211032846FFF732FA002202212A
:101070002846FFF72DFA0849CC6088688007FCD520
:1010800088680006FCD42846BDE870400122022191
:10109000FFF71EBA000402400030014070B586B070
:1010A00014216846FFF7CEF825480024016841F076
:1010B00004010160016801F004010591016841F03B
:1010C00080010160016801F080010591016841F033
:1010D00001010160016801F001010591016841F021
:1010E000020101600068174E00F0020041F2024563
:1010F0000590002229463046FFF7EAF94FF40050E8
:1011000000901148CDE9010469461048FFF716F92F
:101110000C2000900220CDE9010403200390072059
:10112000049069460A48FFF709F901200095CDE9C6
:101130000104694630460394FFF700F906B070BD1C
:101140003038024000040240000021100008024034
:10115000000002400B480A494FF4007201604FF44E
:101160008271416000218160C1600161C0E90512A6
:10117000C1610162416281620A21C162FFF7BABCAA
:101180000030014018010020FEE7704770477047AB
:10119000FFF7AAB910B592B030216846FFF752F8B0
:1011A00014210CA8FFF74EF815480024016841F0FF
:1011B00080510160006800F0805011901148016872
:1011C00041F4404101600068069400F440401190F1
:1011D0000220009001200390102004906846FFF741
:1011E000DBFA0F20CDE90C044FF48050CDE90E401E
:1011F00000210CA81094FFF705FA12B010BD0000F2
:1012000040380240007000400548016841F4700118
:10121000016003494FF000608039086070470000AA
:1012200088ED00E0FEE70907090E002804DB00F165
:10123000E02080F80014704700F00F0000F1E0207B
:1012400080F8141D704702E008C8121F08C1002A68
:10125000FAD170477047002001E001C1121F002A37
:10126000FBD1704710B54421094801F004F910F092
:1012700017FE084C0023042260601E21064810F06F
:1012800027FCA06002F09AFB0020207010BD000037
:101290005031012074000020753A00082DE9F0411A
:1012A00000251C4688460646152A3BD2DFE802F098
:1012B0000B1B1D2E3744535C5E676A79878999A69C
:1012C000ABB0B5BACD00304608F0F5FF0546404654
:1012D00008F0F1FF014605EBD570401001EBD1712C
:1012E000A0EB6100A1E025800EE0304608F0E3FFAE
:1012F0000746404608F0DFFF07EBD771491000EBC7
:10130000D070A1EB60008BE065800BE0304608F008
:10131000D2FF0746404608F0CEFF381A80E025800D
:1013200097E0608020883188084420806088718838
:1013300008446080BDE8F081304608F0BCFF0546F7
:10134000404608F0B8FF05EBD571491000EBD070AE
:10135000A1EB60007CE0304608F0ADFF054640465A
:1013600008F0A9FF281A73E025805FE0304608F0F6
:10137000A2FF0546404608F09EFF281A55E025804A
:10138000084618E0304608F096FF0546404608F04B
:1013900092FF05EBD571491000EBD070A1EB600016
:1013A00007E0304608F087FF0546404608F083FF17
:1013B000281A2080404608F052FF4042B1E72580BD
:1013C00018E0304608F077FF0546404608F073FF06
:1013D000014605EBD570401001EBD171A0EB610027
:1013E00007E0304608F067FF0546404608F063FF17
:1013F000281A2080304608F032FF92E7084608F0AD
:101400005AFF40420CE0084608F055FF40420CE00D
:10141000084608F050FF40421AE0304608F04BFF03
:10142000208071E7304608F046FF2080304608F003
:1014300016FF0546404608F012FF05EBD57149102E
:1014400000EBD070A1EB60006BE7304608F033FF93
:101450002080304608F003FF0546404608F0FFFEB6
:10146000281A5EE770B5B1F90030B2F90040A34226
:1014700000DC23460380B1F90250B2F90240A542D4
:1014800000DD2C464480B1F90460B2F90450AE424C
:1014900000DA35468580B1F90610B2F9062091428E
:1014A00000DB1146C1800120AB4201DC8C4200DD33
:1014B000002070BDF8B50D460446B0F90000B1F942
:1014C00000101646884247DBB4F90210B5F9022035
:1014D000914241DBB4F90410B5F9042091423BDCA0
:1014E000B4F90610B5F90620914235DC96B3ADF893
:1014F00000006088ADF8020032466946284600F0D8
:1015000049F8002827D0A088ADF800006088ADF821
:10151000020032466946284600F03CF800281AD0FE
:101520002088ADF80000E088ADF802003246694638
:10153000284600F02FF800280DD0A088ADF8000054
:10154000E088ADF8020032466946284600F022F8ED
:10155000002800D00120F8BD0020F8BDB0F900201F
:10156000B1F904309A4213DCB0F90420B1F900302B
:101570009A420DDBB0F90220B1F906309A4207DC3D
:10158000B0F90600B1F90210884201DB0120704772
:10159000002070472DE9FC4114460E46B1F90020A9
:1015A000B0F9001005468A423ADBB5F904008242E0
:1015B00036DCB6F90270B5F90220974230DBB5F996
:1015C00006309F422CDC002C75DD401A9A1A401C14
:1015D000521C00B212B200EBD07002EBD27240107B
:1015E0005210904200DB1046844200DD0446ADF804
:1015F0000010288800222044ADF804006888ADF867
:101600000200688831462044ADF806006846FFF7BE
:10161000C1FF40B1BDF804002044ADF804003FE034
:101620000020BDE8FC81E8880022001BADF8020024
:10163000E888ADF8060031466846FFF7ABFF28B1F1
:10164000BDF804002044ADF8040011E0A888002291
:10165000001BADF80000A888ADF8040031466846CC
:10166000FFF798FF50B1BDF80000001BADF8000077
:10167000BDF80200001BADF8020016E06888ADF866
:101680000200688800222044ADF806003146684612
:10169000FFF780FF70B1BDF80000001BADF800003F
:1016A000BDF806002044ADF80600314668460FF04C
:1016B00053FDB6E7FFE70120B3E710B5B1F90040ED
:1016C000B2F900309C4200DA23460380B1F90240AF
:1016D000B2F902309C4200DA23464380B1F904405B
:1016E000B2F904309C4200DD23468380B1F9061034
:1016F000B2F90620914200DC1146C18010BD2DE9EF
:10170000FF4F87B01D46DDE91476DDF858908B4613
:10171000022E50D3002F4ED001F0CEFB804609F0B0
:10172000B1FF00F11004D0F808A0D8F8241040460A
:1017300001B188475A4604A80799FFF793FE00288D
:1017400039D0BDF810002188401A01B2ADF8101050
:10175000BDF812006288801AADF81200BDF81400BE
:101760002288801A00B2ADF81400BDF816206388F4
:10177000D21AADF8162095B198F80820D2070ED1EC
:10178000401A401C01B2002007E02A5C802A01D9DF
:10179000FF2200E000222A54401C8842F5DBD8F8E2
:1017A000140058B1CDE90065029704AA51462046BD
:1017B000099B07F0C1F80BB0BDE8F08FB9F1000F3D
:1017C0000AD001A8009680E8A00204AA514620464B
:1017D000099B06F007FEEEE7CDE90065029704AA33
:1017E00051462046099B06F097FEE4E72DE9FF4F9E
:1017F00087B01D46DDE91476DDF858A09146022E2B
:1018000052D3002F50D0014605A8089AFFF72AFEB0
:10181000002849D001F050FB804609F033FF00F169
:101820001004D0F808B0D8F82410404601B1884719
:10183000BDF814002188401A01B2ADF81410BDF8AB
:1018400016006288801AADF81600BDF818002288CC
:10185000801A00B2ADF81800BDF81A206388D21AB9
:10186000ADF81A2095B198F80820D2070ED1401A89
:10187000401C01B2002007E02A5C802A01D9FF2227
:1018800000E000222A54401C8842F5DBD8F81400FE
:1018900068B1CDF800900397CDE9016505AA5946D6
:1018A0002046089B10F018FF0BB0BDE8F08FBAF18E
:1018B000000F0BD002A805AA80E8A004CDE900968D
:1018C00059462046089B10F08FFCEDE7CDF80090BC
:1018D0000397CDE9016505AA59462046089B10F0FB
:1018E00033FDE1E72DE9FC5F054610F0D9FA554CD0
:1018F0000190E86860600021284610F017FA6068DF
:10190000416CA9B10FF000FE0FF076FD60684E4A01
:10191000D0F8801111427DD0A34609F044FF002881
:1019200067D0DBF804005D464169002961D108E019
:101930004549D0F88021C9430A40C0F88021BDE85C
:10194000FC9F09F09FFE04460FF0D8FEA069002816
:10195000FCD16868B0F90000400000F099FE8246B2
:10196000A16820688946814200D160688046686825
:1019700009F09CFE06460024AB462DE00A1992F8B9
:1019800062213ABB01EBC40131F9622FB1F9025077
:1019900016FB052389885F00891A491C09B2490092
:1019A00000910FE008EB07015046009A00F034FF69
:1019B00009EB07005146009A00F02EFF6D1C07EB63
:1019C00046072DB2DBF8040000EBC400B0F9680054
:1019D000A842E7DA641CA4B2DBF80410D1F8802135
:1019E000C2F30942A242C9D8BAF1000001D000F006
:1019F000D5FEDBF804004FF480715C46623001F0E4
:101A000001F86068202100F5B17000F0FBFF60680C
:101A10000D4A00E00FE0D0F88011D2431140C0F829
:101A20008011019810F036FA63689D691DB1014676
:101A300018462268A84700F009FEBDE8FC5F00F0E8
:101A400005B80000180000200000FF0310B5044C8A
:101A50002068002803D00DF081FB0020206010BD1D
:101A6000980000204421014800F005BD38310120D4
:101A70001821014800F0FFBC5C3101202DE9FF5F17
:101A80000446DDE90E0613B9B0F5807F7ED0B6F9C5
:101A900000504FF0FF376D42454307EB25252DB22F
:101AA0002580B6F902C0CCF1000C0CFB00FC07EB62
:101AB0002C273FB26780B6F900C0A1EB0C0141436F
:101AC0004FF0020C0CEB212109B2A180B6F9028083
:101AD000A2EB080242430CEB222000B2E080002B74
:101AE0007ED04FF00A0A93FBFAF5684200EB8000C3
:101AF00003EB400705F1010928B201F0E5FD009074
:101B00000FFA89F001F0E0FD83465A3528B201F062
:101B1000DBFD804609F15A0000B201F0D5FD014617
:101B2000009AC7F10A0000FB02F300FB08F00BFB70
:101B3000073301FB070193FBFAF291FBFAF04FEA3E
:101B4000601AB4F90010B4F902000AFB01FCCDF8E8
:101B50000CC05511378805FB10C207EBA2220FFA03
:101B600082F905FB01F2BB46029277880AFB00214D
:101B700007EBA1210BB2B4F90410BE460AFB01FC2D
:101B800005FB10C20BEBA22216B200E02FE005FB12
:101B900001F7CDE9007CB4F90680DDF80CC00AFB42
:101BA000007005FB18C1DDF804C0009F05FB18C5D7
:101BB000029A0AFB087C0AFB08220BEBA1210EEB20
:101BC000AC270EEBA02009B20EEBA2220BEBA52551
:101BD0000FFA87FC00B212B22DB24F46494500E021
:101BE0000EE000DA0F46B54216DAA84615E00020EE
:101BF0002080491E6080A180521EE280BDE8FF9FC8
:101C000032882A44228072883A44628032881144A1
:101C1000A180718808444FE0B046474504DA4F463A
:101C2000494506DA0F4604E0B54201DA2F4600E0E6
:101C3000374627804F46494500DD0F46B54201DD56
:101C4000A84600E0B046474503DD4D46494505DC62
:101C500001E0B54201DD294600E03146A1809A420B
:101C600001DA154600E01D46844501DA614600E0D0
:101C700001468D4205DA9A4201DA114606E019461C
:101C800004E0844501DA614600E0014661809A4241
:101C900001DD114600E01946844501DD654600E09E
:101CA0000546A94205DD9A4201DD104604E01846CA
:101CB00002E0844500DD6046E0809FE72DE9FE4FAD
:101CC0000446D0F800B0B0F90800E589081AB4F964
:101CD0000A10511AD4E90932B5F5807F3CD0A589A4
:101CE000002DA56B05FB00F005FB01F54FEA601028
:101CF0004FEA65113ED0256BE66A05FB00F706FB4F
:101D00001177464305FB016003EBA72902EBA020F6
:101D100080460612B4F904004FEA2927B84248DD8C
:101D2000002F46DBB4F90610B14242DD002E40DB45
:101D300094F834104A073FD58A0704F114031DD4E0
:101D400000FB067045004FF0020A0BEB05015246FE
:101D5000184600F00DFE22E0256BE66A05FB00F751
:101D600006FB1177464305FB016003EBA70902EB75
:101D7000A000CDE703EB00095018C9E700FB06708F
:101D800000EB40054FF0030A0BEB05010222184659
:101D900000F0EEFDE81C584410F8010CA07594F812
:101DA0003400C0071ED01948A18A008880B2814241
:101DB00018D10020BDE8FE8F32B204F1180023696B
:101DC000CDE90102002539B2AA468B460BF0E6FAAE
:101DD0000090BDF80000A082DDE9010259460BF039
:101DE00075FADBE7E07C78B1A4F83C90A4F83E807B
:101DF000A4F84070A4F84260656484F848A02046C6
:101E0000BDE8FE4F00F004B80120D3E7E84E01081A
:101E10002DE9F04F044690F83C10D0F8009090F86F
:101E20003E0087B04FF0FF36702907DAB4F9402042
:101E30003546012A00D5002580310DE0902916DDB8
:101E4000B4F94020B4F904300125521C9A4200DB59
:101E50000025A1F27F114942C9B28846702809DAEB
:101E6000B4F94210012900D50026803010E0002589
:101E7000FF21F2E790280DDDB4F94210B4F90620F5
:101E80000126491C914200DB0026A0F27F1040424F
:101E9000C7B201E00026FF2760690090A07D059091
:101EA000002083468246049094F83400400744D5CD
:101EB00094F84810606C11FB05014944022201A806
:101EC00000F062FDA08894F8481010FB01F0616CEE
:101ED000022206FB0011494403A800F055FDA18829
:101EE00094F8480011FB00F1626C06FB012210FB24
:101EF00005901118022202A800F046FD94F8340063
:101F0000800761D594F84800626C10FB052300EB54
:101F100009010B4413F8013C0493A38813FB00F35D
:101F200006FB0322114411F801BC10FB0500111837
:101F300001EB090010F8010C45E0B4F84000B4F9D9
:101F40004220284401B204F11800814623690BF0B5
:101F500025FA0190B4F84200B4F94010304402B2BE
:101F600054F8103F48460BF019FA0390608E23682E
:101F7000304402B2208E284401B248460BF00EFADB
:101F8000029094F82400103C80071DD5B4F942203B
:101F900034F8400F284401B248460BF097F90490FA
:101FA0006088B4F90010304402B248460BF08EF954
:101FB00083466088304402B234F84009284401B2B4
:101FC00048460BF083F9824694F834004246454671
:101FD000800735D5059810FB08F30499C8F1FF0078
:101FE00011FB0031C1F307211BFB08F61AFB00604F
:101FF000C0F3072011FB07F3C7F1FF0610FB063300
:102000001B0AA375022907D8022803D8002007B0AD
:10201000BDE8F08F002702E0022800D8FF270598CE
:10202000022800D800220498022800D8FF22BBF121
:10203000020F00D80025BAF1020F03D8FF2501E0F6
:10204000FF20A075EAB1FF2A04D0DDE9000108F005
:1020500071FB0090BDB1FF2D17D0DDE902102A46BB
:1020600008F068FB049097B1FF2F05D001463A466F
:10207000009808F05FFB0090BDF80000A0820120EE
:10208000C5E70198E5E70298ECE70398EAE7BDF8B1
:102090001000F3E72DE9F0470446B0F908000A27DD
:1020A00000026062B4F90A000002A062B4F90C10E8
:1020B00091FBF7F5684200EB800001EB40066842B7
:1020C00005F1010800B201F0FFFA8246E84300B2D0
:1020D00001F0FAFA8146C5F15A0000B201F0F4FAB3
:1020E0000546C8F15A0000B201F0EEFAC6F10A0145
:1020F00001FB0AF3024609FB0630694390FBF7F047
:1021000002FB061191FBF7F14011E06248112063D8
:10211000A07C0BF04FFA94F8341060F3000184F8BF
:102120003410A07C0BF036FA94F8341060F34101BF
:1021300084F83410A07C042824D0052822D0062856
:1021400020D021F0040100BF84F8341021682162FE
:10215000A16921F0E00160F30401A08860F39421FB
:10216000E08860F35F51A161E0894FF4001101EB59
:102170005001B1FBF0F0A063FF20A075208AA0827F
:10218000BDE8F08741F00401DEE700002DE9F047EB
:10219000444E89468046318821B14348434C056806
:1021A00000200EE00020BDE8F08700BF00EBC00279
:1021B00005EB8202136AA34201DD5B1E1362401C21
:1021C00080B28842F2D300241BE000BF04EBC400BD
:1021D00005EB800778680BF0B7FE10B1012809D035
:1021E0000DE0796841450AD139891FFA89F08142A9
:1021F0000ED004E041467868FEF736F840B1641C22
:10220000A4B230888442E1D32C46012032881AE0FF
:1022100004EBC40005EB80004269016A11444FF4ED
:102220007A720162914200DD02620028BBD1EBE7C5
:1022300000EBC00105EB8101266A0B6AB34200DAAC
:102240000C46401C80B29042F2D3606810B1204628
:102250000BF0EFFC0FF024FE064600254A464146EF
:10226000204665610BF044FD18B12562606978B1C4
:1022700015E020460BF0DDFC2021204600F0C2FBDB
:102280002421204600F0BEFB4FF00040206289E789
:1022900030460FF0FFFD606108B901206061204603
:1022A00081E700002800002080000020010000805D
:1022B00010B510210C4800F0DEF80BF0CDFC40B159
:1022C0000A4901600A4941600A4981600A49C160BE
:1022D00010BD09F0D9F80028FAD10022134607A052
:1022E00009F0D6F8FEE700006831012003D60008A7
:1022F00071D9000875DB0008CFD500084F75742030
:102300006F66206D656D6F727900000000210846D0
:102310000BF050BE7FB50D46040003D109F0B4F9AF
:10232000040025D02E4EF5B10020ADF80000ADF828
:102330000200204609F0BAF9401EADF8040020461C
:1023400009F016FA401EADF806006A46294602A8B2
:10235000FFF788F800280BD0226912B102A92046A5
:102360009047002511E0D4F880013040C4F8800186
:102370007FBD00BF04EBC501002202A86231FFF758
:1023800099F80028F4D16D1CADB2D4F88001C0F3E7
:102390000940A842EED8D4F88001C0F309412029B1
:1023A00003D204EBC10002A907E03040C4F8800169
:1023B000C0F3094004EBC0006946623007F022FF19
:1023C000D4F880014FF4800101EBB0604FEAB01007
:1023D000C4F880010321606B0FF0A8FC7FBD0000F2
:1023E000FFFF00FC70B50C461E461546114600F076
:1023F000F2F8AEB100222946204610F06BFA2946C9
:102400002046626810F060FA616819B12A462046D9
:1024100010F060FA6560A068002800D1A56070BD6A
:1024200029462046A26810F055FA00222946204687
:1024300010F04AFAA16819B12A46204610F044FA71
:10244000A56060680028EAD1656070BD002100B118
:10245000416808467047002802D00068091D4058AE
:102460007047002801D0006840587047002100B133
:1024700081680846704700224260C91C21F00301B0
:1024800082600160704770B50446006808300CF047
:1024900011FE050013D001460022204610F01AFA62
:1024A00029462046626810F00FFA616819B12A4681
:1024B000204610F00FFA6560A06800B9A5602846B4
:1024C00070BD2DE9F0410D4607002BD055B3FFF745
:1024D000BDFFA84204D13846FFF7D5FF04461EE0F1
:1024E000386808300CF0E6FD04001BD02946384659
:1024F000FFF7B7FF064601462246384610F0E4F9DA
:1025000032462146384610F0E5F92246294638463B
:1025100010F0E0F92A462146384610F0D5F9204659
:10252000BDE8F0810020FBE770B504460068083084
:102530000CF0C0FD050013D001460022204610F02B
:10254000C3F929462046A26810F0C4F9A16819B160
:102550002A46204610F0B8F9A560606800B96560A9
:10256000284670BD28B1416809B9806808B10020CB
:102570007047012070472DE9F04116460D46074689
:10258000B14226D01EB11146FFF76BFF01E0FFF705
:102590006DFF0446A5421CD02946384600F01BF8C2
:1025A0002A462146384610F08FF9224629463846F9
:1025B00010F090F92A463146384610F08BF9324631
:1025C0002946384610F080F906B9BD60002C00D1CC
:1025D0007D60BDE8F08170B50A460446FFF736FF1E
:1025E000002390420AD111462046FFF734FF606075
:1025F000011E01D0002224E0A36070BD2046FFF739
:1026000035FF9042114620460CD1FFF72AFFA0600B
:10261000011E05D02046BDE87040002210F054B9DC
:10262000636070BDFFF71DFF064611462046FFF7A9
:1026300012FF054602463146204610F045F9324663
:1026400029462046BDE8704010F044B970B500201E
:102650000D49054601EBC002401CC0B2957102282D
:10266000F8D30A4E002400BF56F8340038B10CF0FD
:1026700075FD06EBC40046F8345085718580641CF6
:10268000E4B2102CF0D370BDAC00002080310120EA
:102690002DE9F041050019D00126102D0BD8304945
:1026A000002000BF01EBC0029279D20711D0401C7C
:1026B000C0B20228F6D32B4C4FF0FF30002200BFEF
:1026C00004EBC2018B79DB0709D01AE00020BDE8DA
:1026D000F08101EBC002967151F83000F7E789886C
:1026E000A9420ED305D104EBC200867154F8320022
:1026F000EDE7002804DB04EBC0039B88994200D27D
:1027000050B2521CD2B2102ADAD3002805DB04EBF7
:10271000C0018E7154F83000D9E7002704EBC700E0
:102720008079C00709D07F1CFFB2102FF6D300229A
:1027300013460DA008F0ACFEFEE754F8370029461A
:102740000CF03AFD30B104EBC7018E718D8044F876
:102750003700BCE7002213460F4808F099FEFEE759
:10276000AC000020803101204E6F2066726565202C
:102770006275666665722E20496E63726561736567
:10278000204C565F4D454D5F4255465F4D41585F69
:102790004E554D2E000000005C85010810B500214B
:1027A0000C4B0A4653F83140844209D0491CC9B247
:1027B0000229F7D3084B002153F83140844203D15A
:1027C00003EBC100827110BD491CC9B21029F3D3BB
:1027D00010BD0000AC00002080310120002803D093
:1027E0000449884201D10020704750F8040C400889
:1027F00070470000A40000200649054847F6FC7217
:102800004860016821F0010162F35F0101607047D7
:10281000803201209C00002030B500F0030401F05C
:1028200003050346A54243D14EE00C781C704C785A
:102830005C708C789C70CC78DC700C791C714C7955
:102840005C718C799C71CC79DC710C7A1C724C7A3D
:102850005C728C7A9C72CC7ADC720C7B1C734C7B25
:102860005C738C7B9C73CC7BDC730C7C1C744C7C0D
:102870005C748C7C9C74CC7CDC740C7D1C754C7DF5
:102880005C758C7D9C75CC7DDC750C7E1C764C7EDD
:102890005C768C7E9C76CC7EDC760C7F1C774C7FC5
:1028A0005C778C7F9C77CC7FDC772031203A20339B
:1028B000202ABAD805E000BF11F8014B03F8014BFC
:1028C000521E002AF8D130BD4CB3C4F1040405E017
:1028D00011F8015B521E03F8015B641EFCB1002A73
:1028E000F6D11CE010C9203A10C310C910C351F82A
:1028F000084B43F8084B51F8044C43F8044C51F88A
:10290000104B43F8104B51F80C4C43F80C4C51F859
:10291000084C43F8084C51F8044C43F8044C202A66
:10292000E0D802E010C9121F10C3042AFAD804E04C
:1029300011F8014B03F8014B521E002AF8D130BDAB
:1029400010B5034605E000BF11F8014B03F8014B39
:10295000521E002AF8D110BD10B5034605E000BF95
:1029600011F8014B03F8014B521E002AF8D110BD9B
:1029700010B5034605E000BF11F8014B03F8014B09
:10298000521E002AF8D110BD10B5034605E000BF65
:1029900011F8014B03F8014B521E002AF8D110BD6B
:1029A00010F0030309D0C3F1040303E0521E00F842
:1029B000011B5B1E0BB1002AF8D101EB012303EBD5
:1029C000014303EB01630EE008C0203A08C040F861
:1029D000083B40F8043C40F8103B40F80C3C40F801
:1029E000083C40F8043C202AEED801E008C0121F41
:1029F000042AFBD803E000BF00F8011B521E002A86
:102A0000FAD1704710F003034FF0000219D0C3F160
:102A1000040303E0491E00F8012B5B1E8BB1002963
:102A2000F8D1704704C0203904C040F8082B40F8A2
:102A3000042C40F8102B40F80C2C40F8082C40F8DF
:102A4000042C2029EED801E004C0091F0429FBD87A
:102A500003E000BF00F8012B491E0029FAD170479E
:102A600010F003024FF0FF030AD0C2F1040203E0AA
:102A7000491E00F8013B521E12B10029F8D17047DF
:102A80004FF0FF320EE004C0203904C040F8082B9C
:102A900040F8042C40F8102B40F80C2C40F8082C7F
:102AA00040F8042C2029EED801E004C0091F0429B5
:102AB000FBD802E000F8013B491E0029FAD170471B
:102AC00070B50D4606460024214630460DF0D9FA71
:102AD00038B14168641C65F3CB21E4B24160402CFD
:102AE000F2D34024214630460DF0CBFA002807D01F
:102AF0004168641C65F3CB21E4B24160FF2CF1D343
:102B000070BD00002DE9F04786B014468A4616468F
:102B1000170A05464FF0000823E0514628460DF0FD
:102B2000B0FA8146514628460DF04AFA06EB0020DD
:102B300084B202AA2146484600F0F2FA012807D0E2
:102B4000380610D5BAF1000F07D04FF0000A08E0A0
:102B5000BDF8080006B0BDE8F08728460DF0EEF994
:102B60000546002DD9D124F4FE40292804D02A2876
:102B700002D0CDF8008002E0024800680090BDF865
:102B80000000E7E7E44E01082DE9F84315468946C1
:102B900017464FEA12280646A5E0494630460DF092
:102BA00070FA04464068010570D481066ED0400575
:102BB00005D425F4FE424946304611F095FF25F430
:102BC000FE40302859D024DC112869D010DC0528BB
:102BD00050D006DC01285DD0022845D004286CD1F5
:102BE00048E0062846D0072844D0102865D157E091
:102BF000162858D006DC122852D0132850D0152899
:102C00005BD150E017284ED018284CD0202854D142
:102C10004CE060284AD010DC402838D006DC31284F
:102C20002ED0322842D0332847D12CE042283DD044
:102C3000502832D0542840D138E048F28102811A1D
:102C4000904214D009DC722830D091282ED000F5A3
:102C5000FF40B0F5803F30D109E0012929D0022999
:102C600024D01F2929D121E0A088400423E06068F6
:102C7000800020E0A08800041DE0606880021AE067
:102C80006068400217E06068000214E015E06068C8
:102C9000C00110E0A088C0040DE0606840010AE0B7
:102CA0006068C00307E06068800304E06068400378
:102CB00001E060684000002818DB494630460DF00E
:102CC0007FF907EB002085B26A462946204600F0CE
:102CD00063FA012814D05FEA086007D5B9F1000F44
:102CE00012D04FF00009002E7FF457AF25F4FE40BC
:102CF000222819D00CDC032812D007280CD115E0AB
:102D0000BDF90000BDE8F88330460DF017F942E741
:102D1000312803D0C02805D00020F3E70F20F1E7C9
:102D20000620EFE71020EDE7FF20EBE74FF480707F
:102D3000E8E72DE9F8431446894617464FEA12287A
:102D400006463BE0494630460DF09BF90546406893
:102D500001051DD481061BD0400505D424F4FE4294
:102D60004946304611F0C0FE24F4FE402C2809D01C
:102D70000C38B0F5004002D0A12809D12DE0A88878
:102D8000800403E06868C10224D40003002817DB34
:102D9000494630460DF014F907EB002084B26A462C
:102DA0002146284600F034FA012819D05FEA08606D
:102DB00006D5B9F1000F16D04FF00009002EC1D191
:102DC00024F4FE402C2812D06D2810D0AD38B0F578
:102DD000004F0CD0FF20BDE8F8836868C000D5E73D
:102DE0009DF80000F7E730460DF0A8F8A8E70020AE
:102DF000F1E700002DE9F8431446894617464FEAEB
:102E0000122806463BE0494630460DF03AF90546A1
:102E1000406801051DD481061BD0400505D424F46B
:102E2000FE424946304611F05FFE24F4FE406E2813
:102E300009D07F2804D08E38B0F5004F09D105E0C5
:102E40006868000103E06868800100E068680028A5
:102E500017DB494630460DF0B3F807EB002084B28B
:102E60006A462146284600F00FFA012816D05FEA8C
:102E7000086006D5B9F1000F12D04FF00009002EFE
:102E8000C1D124F4FE407E280ED0BE280FD08E384B
:102E9000B0F5004F08D00020BDE8F8830098FBE7AC
:102EA00030460DF04BF8ACE70EF08AFFF4E701482E
:102EB000F2E70000408401080148406870470000C4
:102EC00018000020704730B504020020831803FB6F
:102ED00003F5A54200D818465208F7D102090007A9
:102EE0000A80000E488030BD2DE9F041884605007B
:102EF00016464FF0FF3706D0286820B1284606F066
:102F00000FF9040002D53846BDE8F0812968A01CFD
:102F1000014402223046FFF71FFD2146284606F0F5
:102F20003BF900EA182000F07F00EDE72DE9F041C1
:102F30008846050016464FF0FF3706D0286820B1B6
:102F4000284606F0EDF8040002D53846BDE8F081C9
:102F50002968A01C014402223046FFF7FDFC2146EF
:102F6000284606F019F900EA182000F07F00EDE786
:102F700070B50546006800280DD0002403E000BFAE
:102F800006F0C0F804442146284606F00AF9FF2856
:102F9000F6D1A41CA0B270BD2DE9F0418846050011
:102FA00016464FF0FF3706D0286820B1284606F0B5
:102FB000B7F8040002D53846BDE8F0812968A01CA6
:102FC000014401223046FFF7C7FC2146284606F09F
:102FD000E3F800EA182000F07F00EDE72DE9F0416A
:102FE0008846050016464FF0FF3706D0286820B106
:102FF000284606F095F8040002D53846BDE8F08171
:103000002968A01C014404223046FFF7A5FC214694
:10301000284606F0C1F800EA182000F07F00EDE72E
:1030200070B50E4605003AD000F06EF9686881066A
:1030300016D08006010E091D28680CF0BDF8044664
:1030400008F022FA80B1002C29D0696800200A0615
:1030500000D501204A0600D5401C01F03F0111E0D7
:1030600004200CF027F8EAE7224600230CA008F021
:103070000FFAFEE704EB810252F8042C44F82120F9
:10308000491EC9B28142F5D844F8206068684FF003
:10309000806101EBB0104FEAB060C5E9004070BD3F
:1030A0004F7574206F66206D656D6F72790000003A
:1030B00070B505460079000604D52846BDE8704085
:1030C00000F019B904200BF0F5FF044608F0DCF914
:1030D000A8B1D4B120460EF070FB21462846FFF778
:1030E0009FFF686840F080006860400605D528684A
:1030F000D0E90012026028684160204670BD224677
:10310000002303A008F0C4F9FEE7002070BD000012
:103110004F7574206F66206D656D6F7279000000C9
:103120002DE9F84317468946060033D03068002859
:103130002ED000204FEA19284FF0FF34ADF80000E0
:1031400005461DE0E9B230460EF0ADFB6A46494641
:10315000FFF7CAFE404503D1BDF80000388016E0F5
:1031600071680A0604D5002802DB0DB9C905F3D53C
:10317000A04203DD0446BDF8000038806D1C2DB26E
:10318000307900F03F00A842DCDC002C02DB01209B
:10319000BDE8F8830020FBE72DE9F8431746894690
:1031A000060033D0306800282ED000204FEA1928BE
:1031B0004FF0FF34ADF8000005461DE0E9B230469F
:1031C0000EF071FB6A464946FFF7B0FE404503D159
:1031D000BDF80000388016E071680A0604D50028A2
:1031E00002DB0DB9C905F3D5A04203DD0446BDF8E5
:1031F000000038806D1C2DB2307900F03F00A842ED
:10320000DCDC002C02DB0120BDE8F8830020FBE7BA
:103210002DE9F84317468946060033D03068002868
:103220002ED000204FEA19284FF0FF348DF800000F
:1032300005461DE0E9B230460EF035FB6A464946C8
:10324000FFF7AAFE404503D19DF80000387016E054
:1032500071680A0604D5002802DB0DB9C905F3D54B
:10326000A04203DD04469DF8000038706D1C2DB2AD
:10327000307900F03F00A842DCDC002C02DB0120AA
:10328000BDE8F8830020FBE72DE9F843174689469F
:1032900006002ED03068002829D04FEA19284FF0B8
:1032A000FF3400251BE0E9B230460EF0FCFA6A4616
:1032B0004946FFF793FE404502D10098386015E07B
:1032C00071680A0604D5002802DB0DB9C905F4D5DA
:1032D000A04202DD0446009838606D1C2DB23079A2
:1032E00000F03F00A842DEDC002C02DB0120BDE83C
:1032F000F8830020FBE70179090601D4002070471C
:10330000006800687047000070B50E4641680446CA
:1033100088061CD0002001F03F0116E0226852F818
:103320002020B2420FD10025012911D08800001FB2
:103330000BF0C0FE054608F0A7F890B1002D06D0AE
:10334000002001461EE0401CC0B28142E6D870BD9C
:1033500020680BF003FF2560606820F07F0060604C
:1033600070BD2A46002310A008F092F8FEE72268FC
:1033700052F82020B24203D045F82120491CC9B29E
:10338000401CC0B2227902F03F028242EFD820688E
:103390000BF0E4FE60684FF07C4101EBB0104FEAA7
:1033A000B060C4E9005070BD4F7574206F66206D29
:1033B000656D6F727900000070B5040025D020792A
:1033C000400609D520460EF062FA050004D00EF042
:1033D000ACFA28460BF0C2FE2079000609D520463B
:1033E000FFF789FF050004D00EF09FFA28460BF086
:1033F000B5FE2079800602D020680BF0AFFE0020D9
:10340000206060686FF30800606070BD37B582B0FF
:103410000446BDF80C1005F083FE050011D40146EA
:10342000204605F0B9FEBDF80C1000F07F00C1F396
:103430000621884205D1AD1C20680222284404A937
:1034400026E0FF20ADF800002046FFF791FD00B90F
:103450000220001D85B22946204610F094F820680D
:1034600008F012F8C0B1002C14D0206802222844C1
:1034700003A9801FFFF770FA20680222284404A9DC
:10348000001FFFF769FA2068022228446946801E5F
:10349000FFF762FA05B030BD002302A0226807F0F2
:1034A000F7FFFEE74F7574206F66206D656D6F72D4
:1034B0007900000037B582B00446BDF80C1005F065
:1034C0002FFE050011D40146204605F065FEBDF82B
:1034D0000C1000F07F00C1F30621884205D1AD1C1D
:1034E00020680222284404A926E0FF20ADF800004D
:1034F0002046FFF73DFD00B90220001D85B2294698
:10350000204610F040F8206807F0BEFFC0B1002C44
:1035100014D020680222284403A9801FFFF71CFA58
:1035200020680222284404A9001FFFF715FA20682A
:10353000022228446946801EFFF70EFA05B030BD0E
:10354000002302A0226807F0A3FFFEE74F75742056
:103550006F66206D656D6F727900000037B582B0BF
:103560000446BDF80C1005F0DBFD050011D4014642
:10357000204605F011FEBDF80C1000F07F00C1F3ED
:103580000621884205D1AD1C20680122284404A9E7
:1035900026E0FF20ADF800002046FFF7E9FC00B967
:1035A0000220C01C85B2294620460FF0ECFF20689F
:1035B00007F06AFFC0B1002C14D020680222284412
:1035C00003A9401FFFF7C8F920680122284404A975
:1035D000C01EFFF7C1F92068022228446946801EF8
:1035E000FFF7BAF905B030BD002302A0226807F04A
:1035F0004FFFFEE74F7574206F66206D656D6F722B
:103600007900000037B582B00446BDF80C1005F013
:1036100087FD050011D40146204605F0BDFDBDF82B
:103620000C1000F07F00C1F30621884205D1AD1CCB
:1036300020680422284404A926E0FF20ADF80000F9
:103640002046FFF795FC00B90220801D85B229466F
:1036500020460FF098FF206807F016FFC0B1002C3D
:1036600014D020680222284403A90838FFF774F90F
:1036700020680422284404A9801FFFF76DF9206800
:10368000022228446946801EFFF766F905B030BD66
:10369000002302A0226807F0FBFEFEE74F757420AE
:1036A0006F66206D656D6F727900000010B518218E
:1036B0000348FEF7E0FE03490120087010BD00003A
:1036C00014310120BC0000204FF4B47190FBF1F2E2
:1036D00001FB1200002802DA00F5B47000B20E49B6
:1036E0005A2802DA31F910007047A0F15A025A2A1A
:1036F00003D2C0F1B40000B2F4E7A0F1B4025A2A38
:1037000001D210B202E0C0F5B47000B231F810007E
:10371000404200B2704700005C8401082DE9F04788
:1037200088B01D46109E92468946040007D0B9F124
:10373000000F04D016F0120F10D0002004E000207B
:1037400008B0BDE8F087401C215C0A2904D00D298F
:1037500002D00029F7D1F3E7401CF1E7B00701D50B
:1037600047F618454FF000088DF81480204FCDF82B
:10377000108021E00498CDF8188028B3002105AB13
:1037800006AACDE90231CDE9006220442B4652461B
:1037900049460EF08FFB0699691A0DB2B0B1049933
:1037A0000844049021780A290BD00D2909D0205C07
:1037B0000A2812D00D2810D00498205C08B1002DE2
:1037C000D8DC049868B110E00121D8E7049860B90A
:1037D0007A6804A920469047F3E70498401C0490B7
:1037E000EFE77A6804A9204690470498A8E700000C
:1037F000CC0000202DE9FF4F83B004464FF00000BD
:10380000DDF848A0DDF84090208093460F006080EE
:1038100047D0BBF1000F44D05FEA8A7002D547F66B
:10382000184011900025A846BBF8086023E07819DD
:10383000CDE900A05946119B069AFFF76FFF80441F
:10384000B4F9020006EB09010144B1F5004F28D29A
:10385000304448446080A8EB0501CDF800A05A46EA
:10386000069B019800F022F8B4F90010814200DBB9
:10387000084620804546785D0028D8D15DB178198A
:1038800010F8010C0A2801D00D2804D1618806EB3C
:10389000090008446080B4F9020028B1A0EB0900D7
:1038A000608007B0BDE8F08F6680FAE72DE9FC5F25
:1038B0001F46DDF830A091460E4605000CD0B9F148
:1038C000000F09D02878002807D000200446009077
:1038D0008DF804002EBB2BE00020BDE8FC9FDFF834
:1038E000548069462846D8F80420904783460098BB
:1038F000D8F8042028440021904780465FEACA7027
:1039000004D0594601A800F017F850B9424659466C
:10391000484609F04FFB00B2002802DD204438443D
:1039200004B20098B042DAD3002C01DDE01B04B2EF
:103930002046D2E7CC00002000230278232902D0C1
:10394000012A0DD00FE02AB10021012A04D0022A59
:1039500004D008E0012101E0017004E0017001E001
:10396000202902D00123184670470221F6E7000003
:103970002DE9F0471E4614460D468246DDF820909C
:1039800015E000BF4FEA540808FB06573946504679
:103990004A469047002808DD44F30000C0EB540479
:1039A00007EB0605A4F1010401E005DA4446002C0A
:1039B000E8D12046BDE8F0873846FBE710B5074C54
:1039C000012020700648FEF741FD28B10421A068BF
:1039D000BDE810400EF0AAB90021F8E774000020FD
:1039E0005031012010B5044690F84000216B92B090
:1039F000C20707D1228F3AB1A2F57F43FF3B1AD00D
:103A0000521E2287228FB2B909B1C20713D04422B5
:103A100021466846FEF700FF21461448FEF7DBFD0D
:103A200020460BF09BFBFFF7C9FF0398C8B1014686
:103A30006846884715E0626B5242A26289B1C207AC
:103A400002D1E26A5242A262421C62F3000084F890
:103A50004000236AA269A3612262C00700D1E16B22
:103A600061620348007812B010BD0000503101209F
:103A70007400002070B52B48FEF7E8FC06E0086CE7
:103A800020F0020008642748FEF7E5FC0100F6D1AB
:103A9000254D68680EF0FEF9064635E000202870D6
:103AA000206C810734D440F002002064A06A8119A0
:103AB000002805DC002903DBA16809B120468847FE
:103AC000A06A8019A0621DD4616A884200DDA162EB
:103AD0002269214604F110000AB1904701E006F086
:103AE00025FBE169814206D0E06162681AB1236872
:103AF00001B218469047D4E90901814202DB204611
:103B0000FFF770FF287818B10648FEF79FFC03E026
:103B100021460448FEF79FFC0400BFD10EF0C0F917
:103B2000686070BD503101207400002070B50446FB
:103B3000806815460E4608B1FFF7F8FF626822B1AB
:103B400029463046BDE8704010472368002B06D058
:103B500003482A4631460068BDE87040184770BDEA
:103B6000E40000202DE9F041454C60681C300FF066
:103B70009FFC444F60680021FA681C300DF006FF7E
:103B8000002007F087FD00EBC00101EB00104FF4AF
:103B9000A076A0255030B0420ADB002007F07AFD65
:103BA00000EBC00101EB0010503090FBF5F000E09D
:103BB000012002B2606800211C300DF0F1FE606847
:103BC000012200211C300DF0E6FE606820300FF06D
:103BD0006FFC97F82000800701D52B4800E02B48A8
:103BE00006F00BFD02466068002120300DF0CEFE8D
:103BF000002007F04FFD00EBC00101EB001050303A
:103C0000B0420ADB002007F045FD00EBC00101EBEC
:103C10000010503090FBF5F000E0012002B2606827
:103C2000002120300DF0BCFE606801220021203010
:103C30000DF0B1FE606824300FF03AFC606847F682
:103C4000FF72002124300DF0ECFE60680022114666
:103C500024300DF0DCFE60680022114624300DF0A7
:103C6000C2FE60680022114624300DF0C6FE606876
:103C7000BDE8F0410022114624300DF0C3BE000023
:103C8000E8000020A0B20120D9D7D4004D4945005A
:103C90002DE9F843534C606828300FF009FC606848
:103CA00047F6FF784246002128300DF0BAFE6068E2
:103CB000FF22002128300DF045FE4B4D95F82000E5
:103CC000800701D5494800E0494806F096FC0246C5
:103CD0006068002128300DF030FE464E95F8200037
:103CE0003268800703D5444806F087FC02466068C6
:103CF000002128300DF0E2FE60680021EA682830DB
:103D00000DF05DFEE889ADF8000060680421009ABE
:103D100028300DF054FE60680022114628300DF066
:103D200053FE60687F22022128300DF04DFE95F889
:103D3000200080064FF0000011D407F0ABFC5027A4
:103D400007EB4000B0F5A07F08DB002007F0A2FCE5
:103D500007EB4000A02190FBF1F000E0012002B24F
:103D60006068002128300DF039FE6068002211469D
:103D700028300DF09EFE60684C22002128300DF0A6
:103D800093FE60682C300FF093FB6068FF220021E7
:103D90002C300DF0D7FD6068424600212C300DF02C
:103DA00040FE60680021EA682C300DF0C6FD40F648
:103DB000880006F02EFC0246606820212C300DF0B1
:103DC000BCFD95F820007268800703D50B4806F00B
:103DD00014FC02466068BDE8F84300212C300DF069
:103DE0006DBE0000E8000020A0B20120D9D7D400A9
:103DF0004D494500148501084F4031004F404100B6
:103E00002DE9F84FFB4E70680FF052FBFF220021A6
:103E100070680DF097FDF84F97F82000800701D5E6
:103E2000F64800E0F64806F0E8FB0246002170681C
:103E30000DF083FD97F82000F24D800701D5F24880
:103E400000E0284606F0D9FB0246002170680DF01C
:103E500010FE97F82000800701D5EB4800E02846C7
:103E600006F0CBFB0246002170680DF027FE97F8A4
:103E700020007468800701D5E34800E0284606F07A
:103E8000BCFB024648F28A012046FFF7BFFA706881
:103E900048F28B01FA68FFF7B9FA00217A69706875
:103EA0000DF011FE7068001D0FF002FB002007F0FE
:103EB000F1FB502505EBC0004FF4A079A024484544
:103EC00007DB002007F0E6FB05EBC00090FBF4F0F9
:103ED00000E0012002B270680021001D0DF0A1FD7C
:103EE0007068FF220021001D0DF02CFD97F82000C6
:103EF0006FF07F4B800701D5584600E0C34806F0BD
:103F00007CFB024670680021001D0DF016FD97F83D
:103F10002000800701D5BE4800E0BE4806F06DFBDA
:103F2000024670680021001D0DF011FD97F8200079
:103F3000800605D470680221FA68001D0DF007FDA7
:103F4000F889ADF800007068B8460421009A001D99
:103F50000DF0FDFC002007F09DFB05EB40004F46F7
:103F6000B84207DB002007F095FB05EB400090FB13
:103F7000F4F000E0012002B270680021001D0DF095
:103F8000F5FC706801223321001DFFF793FA98F8C1
:103F90002000800701D59C4800E0584606F02DFB24
:103FA000024670680021001D0DF063FD706800215D
:103FB000D8F81420001D0DF086FD98F82000800729
:103FC00001D5914800E0584606F017FB024670689C
:103FD0000021001D0DF072FD98F82000800701D52A
:103FE000894800E0584606F008FB02467068002148
:103FF000001D0DF0C5FC98F82000C146800701D5D2
:10400000814800E0584606F0F8FA02467068002140
:10401000B046001D0DF0BAFC706801220021001DA1
:104020000DF0BEFC002007F07DFB01284FF00000E2
:104030000DD807F02FFBC0EB00105030B84218DB52
:10404000002007F027FBC0EB001050300EE007F017
:1040500021FBC0EB001005EB4000B84209DB00205B
:1040600007F018FBC0EB001005EB400090FBF4F6E6
:1040700000E00126002007F00DFB05EB4000B842F0
:1040800007DB002007F006FB05EB400090FBF4F097
:1040900000E00120304402B2D8F804000021001DE5
:1040A0000DF0ABFC002007F03DFB01284FF00000B5
:1040B0000DD807F0EFFAC0EB00105030B84218DB13
:1040C000002007F0E7FAC0EB001050300EE007F0D8
:1040D000E1FAC0EB001005EB4000B84209DB00201C
:1040E00007F0D8FAC0EB001005EB400090FBF4F6A7
:1040F00000E00126002007F0CDFA05EB4000B842B1
:1041000007DB002007F0C6FA05EB400090FBF4F057
:1041100000E00120304402B2D8F804000021001D64
:104120000DF070FC002007F0FDFA01284FF00000B0
:104130000DD807F0AFFAC0EB00105030B84218DBD2
:10414000002007F0A7FAC0EB001050300EE007F097
:10415000A1FAC0EB001005EB4000B84209DB0020DB
:1041600007F098FAC0EB001005EB400090FBF4F666
:1041700000E00126002007F08DFA05EB4000B84270
:1041800007DB002007F086FA05EB400090FBF4F017
:1041900000E00120304402B2D8F804000021001DE4
:1041A0000DF035FC002007F0BDFA01284FF00000AB
:1041B0000DD807F06FFAC0EB00105030B8422BDB7F
:1041C000002007F067FAC0EB001050300EE007F057
:1041D00061FAC0EB001005EB4000B8421CDB002088
:1041E00007F058FAC0EB001005EB400090FBF4F626
:1041F00013E00000E8000020A0B20120F3EFEA0085
:104200005A4B4400ECE9E700423E3B007362580021
:10421000E3DDD600978A80000126002007F03AFAF5
:1042200005EB4000B84207DB002007F033FA05EB4E
:10423000400090FBF4F000E00120304402B2D8F8D6
:10424000040000214646001D0DF0CDFB002007F0C4
:1042500069FA01284FF000000DD807F01BFAC0EBF7
:1042600000105030B84218DB002007F013FAC0EB02
:10427000001050300EE007F00DFAC0EB001005EB17
:104280004000B84209DB002007F004FAC0EB001040
:1042900005EB400090FBF4F000E0012002B27068F2
:1042A0000021001D0DF0A4FB706800221146001DC6
:1042B0000DF0FFFB706839220021001D0DF0F4FBAA
:1042C00070680C300FF0F4F8716801F10C00091DF2
:1042D0000DF05EFA99F82000800701D5FE4800E055
:1042E000FE4806F08AF9024670680021B0460C309C
:1042F0000DF023FB99F820004E46800701D5F848C1
:1043000000E0F84806F079F90246D8F804000021E8
:104310000C300DF01CFB96F82000DFF8CCA38007D2
:1043200001D5F24800E0504606F067F90246D8F899
:10433000040000210C300DF09CFB96F82000B146E3
:10434000800701D5E94800E0504606F056F90246DC
:10435000D8F80400002146460C300DF0AFFB99F868
:104360002000800701D5E14800E0504606F045F9FD
:10437000024670680021B0460C300DF001FB99F840
:1043800020004E46800701D5D84800E0504606F090
:1043900034F90246D8F8040000210C300DF0F6FA8A
:1043A000D8F8040008300FF083F896F82000B146E2
:1043B000800701D5CE4800E0CE4806F01EF902463F
:1043C000D8F804001021464608300DF0B6FA70689F
:1043D000C8460121D9F80C2008300DF0AEFA33217F
:1043E000D8F80C0006F0C0F80246706811210830B9
:1043F0000DF0A3FA98F82000800701D5584600E098
:10440000BD4806F0FAF802467068202108300DF029
:1044100094FA70680022012108300DF0A7FA3321C8
:10442000D8F80C0006F0A0F8024670681221083097
:104430000DF08DFA98F82000DFF8C0A2800704D5AF
:1044400040F6CC4006F0E5F802E0504606F0D5F81C
:1044500002467068102108300DF079FA98F82000B3
:10446000800701D5A64800E0504606F0C6F802468F
:104470007068012108300DF06AFA98F82000C146F2
:10448000800701D59E4800E0504606F0B6F8024687
:1044900070681121B04608300DF059FA99F82000E3
:1044A0004E46800701D5974800E0504606F0A5F833
:1044B0000246D8F80400202108300DF048FA96F89A
:1044C0002000800701D58E4800E0584606F095F898
:1044D0000246D8F80400102108300DF0CAFA5846F8
:1044E00006F08BF80246D8F80400012108300DF0E0
:1044F000C0FA584606F081F80246D8F804001121A7
:1045000008300DF0B6FA96F82000B146800740F664
:10451000AA2A01D5504601E040F6991006F079F834
:104520000246D8F804002021464608300DF0A1FAD2
:1045300099F82000C846800701D5714800E0584628
:1045400006F05BF802467068102108300DF018FA8A
:10455000584606F052F802467068012108300DF006
:104560000FFA584606F049F80246706811210830E3
:104570000DF006FA98F82000800701D5504601E0BA
:1045800040F6991006F045F8024670682021083080
:104590000DF0F6F970682922002108300DF07FFA3D
:1045A000706810300EF084FF706847F6FF720021CB
:1045B00010300DF036FA7068FF22002110300DF037
:1045C000C1F998F82000C146800701D5584600E09F
:1045D000494806F012F8024670680021B0461030D3
:1045E0000DF0ABF999F820004E46800705D55846E6
:1045F00006F003F80146332204E03F4805F0FDFFD2
:1046000001464C22F06806F00DF90246D8F8040085
:10461000102110300DF091F9D8F80400B1460121B5
:10462000F26810300DF089F94C21F06805F09CFF1C
:104630000246D8F80400112110300DF07EF996F8EA
:104640002000800701D5584600E02B4805F0D5FF33
:104650000246D8F804002021464610300DF06DF9CE
:1046600099F8200040F6880A800702D540F6CC4031
:1046700000E0504605F0CDFF024670682121B046AB
:1046800010300DF05AF9D8F804004E460021D9F840
:104690000C2010300DF05BF9D8F804001021F268FE
:1046A00010300DF054F996F82000800703D55046DD
:1046B00005F0AFFF02E00B4805F09FFF0246D8F877
:1046C00004002021464610300DF041F9002006F08C
:1046D000E1FF05EB400017E0D9D7D4004D49450074
:1046E000EDE7DF0040404000ADA8A5004F4031009D
:1046F000EEEEEE00574F4900736258006E655F00A2
:10470000423E3B00E3DDD600BA46504507DB0020C1
:1047100006F0C0FF05EB400090FBF4F000E0012044
:1047200002B27068002110300DF020F9706800228C
:10473000012110300DF010F999F820004F46800744
:1047400001D5FE4800E0584605F057FF0246706864
:10475000002110300DF08DF997F82000800701D569
:10476000F64800E0584605F048FF02467068102100
:1047700010300DF07EF9D846584605F03EFF02464F
:104780007068012110300DF074F9404605F035FFD6
:1047900002467068112110300DF06BF9DFF8A0931C
:1047A000484605F02AFF02467068202110300DF0BF
:1047B00060F997F82000800701D5E04800E0404606
:1047C00005F01BFF02467068002110300DF0D8F88C
:1047D00097F82000800701D5D84800E0404605F052
:1047E0000CFF02467068102110300DF0C9F84046E9
:1047F00005F003FF02467068102110300DF0C0F87C
:10480000404605F0FAFE02467068112110300DF0A6
:10481000B7F8484605F0F1FE0246706820211030D6
:104820000DF0AEF897F82000800701D5C34800E0EE
:10483000404605F0E2FE02467068002110300DF09F
:104840003DF997F82000800701D5BC4800E04046BC
:1048500005F0D3FE02467068102110300DF02EF9DD
:10486000404605F0CAFE02467068012110300DF086
:1048700025F9404605F0C1FE02467068112110304E
:104880000DF01CF9B846484605F0B7FE02467068C0
:10489000202110300DF012F9002006F0FBFE00EB95
:1048A000800005EBC0005746B84209DB002006F047
:1048B000F1FE00EB800005EBC00090FBF4F000E09F
:1048C000012002B27068002110300DF096F800202F
:1048D00006F0E0FE00EB800005EBC000B84209DB0B
:1048E000002006F0D7FE00EB800005EBC00090FB37
:1048F000F4F000E0012002B27068002110300DF0E9
:1049000081F8002006F0C6FEC0EB00105030B8421F
:1049100008DB002006F0BEFEC0EB0010503090FB1C
:10492000F4F000E0012002B27068002110300DF0B8
:104930006EF8002006F0AEFEC0EB00105030B8421A
:1049400008DB002006F0A6FEC0EB0010503090FB04
:10495000F4F000E0012002B27068002110300DF088
:1049600042F8002006F096FE00EB800005EB800088
:10497000B84209DB002006F08DFE00EB800005EB5D
:10498000800090FBF4F000E0012002B2706800218A
:1049900010300DF02DF898F8200080064FF0000040
:1049A0000ED406F077FE05EB4000B84207DB00208E
:1049B00006F070FE05EB400090FBF4F000E00120F3
:1049C00002B27068002110300DF008F87068002203
:1049D000114610300CF0F8FF70687F220221103071
:1049E0000CF0F2FF70680021D8F80C2010300CF0A9
:1049F000E6FFB8F80E00ADF8000070680421009AD8
:104A000010300CF0DCFF70680022114610300DF001
:104A100050F870683C22B5211030FEF74BFD7068ED
:104A20002922002110300DF03AF870684C22002144
:104A300010300DF039F870680022114610300DF07A
:104A400029F870680022102110300DF023F87068EA
:104A500014300EF02DFD002006F064FE01284FF00A
:104A600000000FD806F016FE00EB800005EB80007A
:104A7000B84219DB002006F00DFE00EB800005EBCC
:104A800080000EE006F006FE00EB800005EBC000A3
:104A9000B84209DB002006F0FDFD00EB800005EBCD
:104AA000C00090FBF4F000E0012002B27068002129
:104AB00014300CF09DFF706818300EF0F9FC0020E7
:104AC00006F030FE01284FF000000FD806F0E2FD9E
:104AD00000EB800005EB4000B84219DB002006F037
:104AE000D9FD00EB800005EB40000EE006F0D2FDA2
:104AF00000EB800005EB8000B84209DB002006F0E7
:104B0000C9FD00EB800005EB800090FBF4F000E0B5
:104B1000012004B270682246002118300CF06DFFAD
:104B200070682246002118300CF06CFF7068224635
:104B3000002118300CF06BFF224603E04F4031009B
:104B4000888888007068002118300CF04CFF70686D
:104B50002246BDE8F84F002118300CF049BF30B5AF
:104B6000032B15D10423082A12D2DFE802F0110426
:104B700006080A0C0E1002220AE0042208E00622AF
:104B800006E0092204E00B2202E00D2200E00F22E1
:104B9000C1F3CF0401F00701C1F10801CD1A0121D1
:104BA0009940491EC943035DA9400B40AA401343E5
:104BB000035530BD2DE9F05FFE4E706834300EF0C5
:104BC00077FC70680022114634300CF020FF002082
:104BD00006F0A8FDA025502401284FF4A0774FF03F
:104BE00000000DD806F056FDC0EB00105030B84262
:104BF00018DB002006F04EFDC0EB001050300EE038
:104C000006F048FDC0EB001004EB4000B84209DBA1
:104C1000002006F03FFDC0EB001004EB400090FBCD
:104C2000F5F000E0012002B27068002134300CF091
:104C3000E4FE002006F076FD01284FF000000DD8BC
:104C400006F028FDC0EB00105030B84218DB002001
:104C500006F020FDC0EB001050300EE006F01AFD0B
:104C6000C0EB001004EB4000B84209DB002006F066
:104C700011FDC0EB001004EB400090FBF5F000E0EC
:104C8000012002B27068002134300CF0BBFE706865
:104C90000022114634300CF0A6FE002006F042FD42
:104CA00001284FF000000DD806F0F4FCC0EB001016
:104CB0005030B84218DB002006F0ECFCC0EB0010CE
:104CC00050300EE006F0E6FCC0EB001004EB4000B4
:104CD000B84209DB002006F0DDFCC0EB001004EB5D
:104CE000400090FBF5F000E0012002B27068002166
:104CF00034300CF05FFE002006F014FD01284FF068
:104D000000000DD806F0C6FCC0EB00105030B842D1
:104D100018DB002006F0BEFCC0EB001050300EE0A7
:104D200006F0B8FCC0EB001004EB4000B84209DB11
:104D3000002006F0AFFCC0EB001004EB400090FB3D
:104D4000F5F000E0012002B27068002134300CF070
:104D50002CFEDFF86892DFF8608299F82000D8F81E
:104D60001C20800703D5964805F047FC0246706872
:104D7000102134300CF07DFE706838300EF098FB56
:104D800099F82000DFF83CB2800703D5584605F0BB
:104D900034FC03E040F6EE6005F03BFC0246706830
:104DA000002138300CF065FE002006F0BBFC012825
:104DB0004FF000000DD806F06DFCC0EB0010503035
:104DC000B84218DB002006F065FCC0EB0010503044
:104DD0000EE006F05FFCC0EB001004EB4000B842B0
:104DE00009DB002006F056FCC0EB001004EB40008D
:104DF00090FBF5F000E0012002B27068002138302D
:104E00000CF0FBFD002006F08DFC01284FF00000A7
:104E10000DD806F03FFCC0EB00105030B84218DB54
:104E2000002006F037FCC0EB001050300EE006F01A
:104E300031FCC0EB001004EB4000B84209DB00205D
:104E400006F028FCC0EB001004EB400090FBF5F0EE
:104E500000E0012002B27068002138300CF0D2FD71
:104E6000002006F05FFC01284FF000000DD806F08E
:104E700011FCC0EB00105030B84218DB002006F0E7
:104E800009FCC0EB001050300EE006F003FCC0EB54
:104E9000001004EB4000B84209DB002006F0FAFBEA
:104EA000C0EB001004EB400090FBF5F000E00120A7
:104EB00002B27068002138300CF095FD7068303017
:104EC0000EF0F6FA002006F0E5FB04EB8000BA468F
:104ED000504507DB002006F0DDFB04EB800090FB73
:104EE000F5F000E0012002B27068002130300CF0D3
:104EF00098FD99F82000D8F820204F46800703D568
:104F0000584605F07AFB02467068012130300CF0FB
:104F1000B0FD7068C1462021D8F8242030300CF054
:104F2000A8FD97F82000B846800701D5332200E09D
:104F300066227068012130300CF004FD7068332265
:104F4000102130300CF0FEFC7068FF22022130305E
:104F50000CF0F8FC70684F460221D9F82820303058
:104F60000CF087FD70680221D8F80C2030300CF06E
:104F7000E4FC98F82000FA6A800703D5124805F08F
:104F80003CFB02467068002130300CF0D6FC7068A3
:104F900047460121D8F80C2030300CF0CEFC706868
:104FA0000222012130300CF0E1FC70680422012162
:104FB00030300BE0E800002014850108A0B2012089
:104FC000888888004F403100666666000CF0C9FC96
:104FD00070680121FA6830300CF0B9FC002006F04E
:104FE00059FB00EB400057465030B84208DB002028
:104FF00006F050FB00EB4000503090FBF5F000E075
:10500000012002B27068002130300CF0F1FC002069
:1050100006F088FB01284FF000000DD806F03AFB9F
:10502000C0EB00105030B84218DB002006F032FB15
:10503000C0EB001050300EE006F02CFBC0EB00106F
:1050400004EB4000B84209DB002006F023FBC0EB74
:10505000001004EB400090FBF5F000E0012002B2EC
:105060007068002130300CF0C8FC002006F05AFBBC
:1050700001284FF000000DD806F00CFBC0EB00102B
:105080005030B84218DB002006F004FBC0EB0010E3
:1050900050300EE006F0FEFAC0EB001004EB4000CA
:1050A000B84209DB002006F0F5FAC0EB001004EB73
:1050B000400090FBF5F000E0012002B27068002192
:1050C00030300CF09FFC002006F02CFB01284FF044
:1050D00000000DD806F0DEFAC0EB00105030B842E8
:1050E00018DB002006F0D6FAC0EB001050300EE0BE
:1050F00006F0D0FAC0EB001004EB4000B84209DB28
:10510000002006F0C7FAC0EB001004EB400090FB53
:10511000F5F000E0012002B27068BDE8F05F002108
:1051200030300CF060BC00002DE9F0476C4C60683A
:1051300044300EF0BDF96B4F97F8200080071DD565
:1051400040F6AA2005F065FA024660680021443066
:105150000CF08FFC606848300EF0AAF9002006F0D1
:1051600099FA4FF4A078A026503040450ADB002081
:1051700006F090FA503090FBF6F004E05A4805F043
:105180003CFAE1E7012002B26068002148300CF0EF
:1051900007FC606800F14809002006F07BFA00EB8C
:1051A0008000502505EB4000404509DB002006F05B
:1051B00071FA00EB800005EB400090FBF6F000E098
:1051C000012002B292214846FEF774F9606800F1AE
:1051D0004809002006F05EFA00EB800005EB400075
:1051E000404509DB002006F055FA00EB800005EB96
:1051F000400090FBF6F000E0012002B29321484607
:10520000FEF758F997F82000800701D5374800E0ED
:10521000374805F0F2F902466068002148300CF08A
:10522000B5FB60684C300EF043F9002006F032FA0E
:1052300000EB400047465030B84208DB002006F043
:1052400029FA00EB4000503090FBF6F000E001201E
:1052500002B2606800214C300CF0A2FB002006F086
:1052600019FA05EB8000B84207DB002006F012FABD
:1052700005EB800090FBF6F000E0012002B26068D0
:1052800000214C300CF0F0FB002006F003FA05EB97
:105290004000B84207DB002006F0FCF905EB4000B7
:1052A00090FBF6F000E0012002B2606800214C3073
:1052B0000CF09EFB002006F0EDF95030B84206DB02
:1052C000002006F0E7F9503090FBF6F000E00120F6
:1052D00002B26068BDE8F04700214C300CF0A1BB81
:1052E000E8000020A0B20120BDADA100E3DDD600A2
:1052F000978A80002DE9F0419C4C606850300EF098
:10530000D7F8002006F0C6F9502505EB8000AF0065
:10531000A026B84207DB002006F0BCF905EB8000B0
:1053200090FBF6F000E0012002B2606800215030EE
:105330000CF077FB002006F0ADF900EB800005EBE8
:105340004000B84209DB002006F0A4F900EB800021
:1053500005EB400090FBF6F000E0012002B260682F
:10536000002150300CF044FBDFF80482606800211B
:10537000D8F80C2050300CF022FB60680022114657
:1053800050300CF021FB60687F22022150300CF07D
:105390001BFB98F8200080064FF000000ED406F0AA
:1053A00079F905EB4000B84207DB002006F072F9FE
:1053B00005EB400090FBF6F000E0012002B26068CF
:1053C000002150300CF00AFB002006F063F900EBDE
:1053D000800005EB4000B84209DB002006F05AF9D6
:1053E00000EB800005EB400090FBF6F000E00120B0
:1053F00002B26068002150300CF0EBFA60680022C5
:10540000114650300CF055FB60684C2200215030A2
:105410000CF04AFB606854300EF04AF860680022D5
:10542000022154300CF0D0FA002006F033F905EBDD
:105430008000B84207DB002006F02CF905EB800065
:1054400090FBF6F000E0012002B2606800215430C9
:105450000CF0E7FA606847A24FF4B7715430FEF7DA
:10546000D1F8454840F26911826B60685430FDF70D
:10547000CDFF60680022114654300CF0CDFA606810
:10548000FF22012154300CF0C7FA60686C22B4216D
:105490005430FEF70FF8606848F28E115430D8F897
:1054A0001020FEF7AFF8002006F0F4F800EB400003
:1054B0005030B84208DB002006F0ECF800EB40006A
:1054C000503090FBF6F000E0012002B2606800214D
:1054D00054300CF092FA002006F0DCF800EB4000AB
:1054E0005030B84208DB002006F0D4F800EB400052
:1054F000503090FBF6F000E0012002B2606800211D
:1055000054300CF07FFA002006F0C4F800EB4000A5
:105510005030B84208DB002006F0BCF800EB400039
:10552000503090FBF6F000E0012002B260680021EC
:1055300054300CF06CFA002006F0ACF800EB4000A0
:105540005030B84208DB002006F0A4F800EB400021
:10555000503090FBF6F000E0012002B26068BDE838
:10556000F041002154300CF03EBA0000E800002069
:10557000A0B20120EF808C001485010810B504460C
:10558000292977D2DFE801F08D15158989158977EA
:1055900015178B15893E8B15158915151538151599
:1055A00015191538328B3215898B4C24176C8B5E8C
:1055B000150000216CE000214DE04021204609F05B
:1055C0005FFF412164E0204609F05AFF01215FE0BE
:1055D0000021204609F054FF4021204609F050FFE9
:1055E0004121204609F04CFF432114E000212046D0
:1055F00009F046FF03214BE00021204609F040FF5F
:105600004021E0E70021204609F03AFF40212046F2
:1056100009F036FF4121204609F032FF422137E0F0
:105620000021204609F02CFF0121204609F028FF27
:105630000221204609F024FF0321204609F020FF23
:10564000042125E00021204609F01AFF42212046CE
:1056500009F016FF4121204609F012FF402117E012
:105660000021204609F00CFF0421204609F008FF24
:105670000321A8E715E00021204609F001FF0321DE
:10568000204609F0FDFE0121204609F0F9FE022125
:105690002046BDE8104009F0F3BE002193E7002149
:1056A000EEE710BD17B581B0022A03D8BDF8080097
:1056B00004B010BDBDF80830BDF80400D90A01EBF4
:1056C000D0211F2900D31F2161F3CF20C3F345113F
:1056D000C0F345142144ADF804003F2900D33F2115
:1056E00061F34A1003F01F0100F01F031944ADF8E5
:1056F00004001F2900D31F2161F30400ADF804004A
:10570000FF2A07D0DDE9010104F0D8FF0090BDF8C1
:105710000000CDE780B2CBE717B581B0022A03D8ED
:10572000BDF8080004B010BDBDF80830BDF8040095
:10573000D90AA1EBD021002900DC002161F3CF20A0
:10574000C3F34511C0F34514091BADF8040000294B
:1057500000DC002161F34A1003F01F0100F01F0379
:10576000C91AADF80400002900DC002161F304002F
:10577000ADF80400FF2A07D0DDE9010104F09EFF27
:105780000090BDF80000CDE780B2CBE72DE9F843EB
:105790007F4C60683C300DF08BFE002005F07AFFF6
:1057A000C0EB0010502707EB40004FF4A078A02575
:1057B000404509DB002005F06DFFC0EB001007EB52
:1057C000400090FBF5F000E0012002B2606800218B
:1057D0003C300CF03AF96068FF2200213C300CF0BC
:1057E000B1F86C4E96F82000800701D56A4800E0B9
:1057F0006A4804F002FF0246606800213C300CF069
:105800009CF8002005F046FF00EB800007EB8000CD
:10581000404509DB002005F03DFF00EB800007EB71
:10582000800090FBF5F000E0012002B260680021EA
:105830003C300CF0DDF8606847F6FF773A4600210F
:105840003C300CF0EEF8606840300DF031FE6068DE
:105850003A46002140300CF0E4F8514F60680021D6
:105860003A6B40300CF069F86068FF22002140304C
:105870000CF068F860680222002140300CF076F8E5
:10588000606800217A6B40300CF061F8606802219A
:10589000F26840300CF05BF8F089ADF80000606809
:1058A0000421009A40300CF052F8002005F0F2FE7E
:1058B00000EB800101EBC00046465030B0420ADBED
:1058C000002005F0E7FE00EB800101EBC000503046
:1058D00090FBF5F000E0012002B26068002140304A
:1058E0000CF08BF8002005F0D5FE00EB800101EBF9
:1058F000C0005030B0420ADB002005F0CBFE00EBC8
:10590000800101EBC000503090FBF5F000E0012079
:1059100002B26068002140300CF074F8002005F0FD
:10592000B9FE00EB800101EBC0005030B0420ADB51
:10593000002005F0AFFE00EB800101EBC00050300D
:1059400090FBF5F000E0012002B2606800214030D9
:105950000CF05DF8002005F09DFE00EB800101EBEE
:10596000C0005030B0420ADB002005F093FE00EB8F
:10597000800101EBC000503090FBF5F000E0012009
:1059800002B26068BDE8F843002140300CF02BB84B
:10599000E8000020A0B20120F3EFEA005A4B4400D7
:1059A0001485010870B5324C606858300DF080FDE8
:1059B000002005F06FFE00EB8000502505EB800015
:1059C000B0F5A07F0ADB002005F064FE00EB80004C
:1059D00005EB8000A02190FBF1F000E0012002B275
:1059E0006068002158300CF04AF8606801220021FC
:1059F00058300BF0C0FF60685C300DF059FD6068F6
:105A0000FF2200215C300BF09DFF1A4D60680021E1
:105A1000EA685C300BF091FF40F6FF7004F0F9FD8E
:105A20000246606800215C300CF023F895F82000F5
:105A3000800701D5104800E0104804F0DEFD024662
:105A4000606810215C300BF078FF95F8200080072B
:105A500001D50B4801E06FF07F4004F0CEFD024617
:105A60006068BDE8704010215C300CF002B80000A6
:105A7000E8000020A0B20120EEEEEE00574F4900F2
:105A8000423E3B002DE9FF5F0025DDF838B01646A9
:105A90000146D846BBF1030F01D14FF0040830484E
:105AA000816080F800B00021C17041604170817058
:105AB0003046FCF7EDFD07460F984FF0000A18B18D
:105AC0003046FCF7E5FD82463146384600F04AF89C
:105AD000002408E03A5D5B4629460198FFF73FF84D
